{
  "_format": "hh-sol-artifact-1",
  "contractName": "ProjectNFT",
  "sourceName": "contracts/CrowdFunding.sol",
  "abi": [
    {
      "inputs": [],
      "stateMutability": "nonpayable",
      "type": "constructor"
    },
    {
      "inputs": [
        {
          "internalType": "address",
          "name": "sender",
          "type": "address"
        },
        {
          "internalType": "uint256",
          "name": "tokenId",
          "type": "uint256"
        },
        {
          "internalType": "address",
          "name": "owner",
          "type": "address"
        }
      ],
      "name": "ERC721IncorrectOwner",
      "type": "error"
    },
    {
      "inputs": [
        {
          "internalType": "address",
          "name": "operator",
          "type": "address"
        },
        {
          "internalType": "uint256",
          "name": "tokenId",
          "type": "uint256"
        }
      ],
      "name": "ERC721InsufficientApproval",
      "type": "error"
    },
    {
      "inputs": [
        {
          "internalType": "address",
          "name": "approver",
          "type": "address"
        }
      ],
      "name": "ERC721InvalidApprover",
      "type": "error"
    },
    {
      "inputs": [
        {
          "internalType": "address",
          "name": "operator",
          "type": "address"
        }
      ],
      "name": "ERC721InvalidOperator",
      "type": "error"
    },
    {
      "inputs": [
        {
          "internalType": "address",
          "name": "owner",
          "type": "address"
        }
      ],
      "name": "ERC721InvalidOwner",
      "type": "error"
    },
    {
      "inputs": [
        {
          "internalType": "address",
          "name": "receiver",
          "type": "address"
        }
      ],
      "name": "ERC721InvalidReceiver",
      "type": "error"
    },
    {
      "inputs": [
        {
          "internalType": "address",
          "name": "sender",
          "type": "address"
        }
      ],
      "name": "ERC721InvalidSender",
      "type": "error"
    },
    {
      "inputs": [
        {
          "internalType": "uint256",
          "name": "tokenId",
          "type": "uint256"
        }
      ],
      "name": "ERC721NonexistentToken",
      "type": "error"
    },
    {
      "anonymous": false,
      "inputs": [
        {
          "indexed": true,
          "internalType": "address",
          "name": "owner",
          "type": "address"
        },
        {
          "indexed": true,
          "internalType": "address",
          "name": "approved",
          "type": "address"
        },
        {
          "indexed": true,
          "internalType": "uint256",
          "name": "tokenId",
          "type": "uint256"
        }
      ],
      "name": "Approval",
      "type": "event"
    },
    {
      "anonymous": false,
      "inputs": [
        {
          "indexed": true,
          "internalType": "address",
          "name": "owner",
          "type": "address"
        },
        {
          "indexed": true,
          "internalType": "address",
          "name": "operator",
          "type": "address"
        },
        {
          "indexed": false,
          "internalType": "bool",
          "name": "approved",
          "type": "bool"
        }
      ],
      "name": "ApprovalForAll",
      "type": "event"
    },
    {
      "anonymous": false,
      "inputs": [
        {
          "indexed": true,
          "internalType": "address",
          "name": "from",
          "type": "address"
        },
        {
          "indexed": true,
          "internalType": "address",
          "name": "to",
          "type": "address"
        },
        {
          "indexed": true,
          "internalType": "uint256",
          "name": "tokenId",
          "type": "uint256"
        }
      ],
      "name": "Transfer",
      "type": "event"
    },
    {
      "inputs": [
        {
          "internalType": "address",
          "name": "to",
          "type": "address"
        },
        {
          "internalType": "uint256",
          "name": "tokenId",
          "type": "uint256"
        }
      ],
      "name": "approve",
      "outputs": [],
      "stateMutability": "nonpayable",
      "type": "function"
    },
    {
      "inputs": [
        {
          "internalType": "address",
          "name": "owner",
          "type": "address"
        }
      ],
      "name": "balanceOf",
      "outputs": [
        {
          "internalType": "uint256",
          "name": "",
          "type": "uint256"
        }
      ],
      "stateMutability": "view",
      "type": "function"
    },
    {
      "inputs": [
        {
          "internalType": "uint256",
          "name": "tokenId",
          "type": "uint256"
        }
      ],
      "name": "getApproved",
      "outputs": [
        {
          "internalType": "address",
          "name": "",
          "type": "address"
        }
      ],
      "stateMutability": "view",
      "type": "function"
    },
    {
      "inputs": [
        {
          "internalType": "uint256",
          "name": "index",
          "type": "uint256"
        }
      ],
      "name": "getProjectByIndex",
      "outputs": [
        {
          "components": [
            {
              "internalType": "string",
              "name": "name",
              "type": "string"
            },
            {
              "internalType": "string",
              "name": "description",
              "type": "string"
            },
            {
              "internalType": "string",
              "name": "imageLink",
              "type": "string"
            }
          ],
          "internalType": "struct ProjectNFT.Project",
          "name": "",
          "type": "tuple"
        }
      ],
      "stateMutability": "view",
      "type": "function"
    },
    {
      "inputs": [],
      "name": "getTokenCounter",
      "outputs": [
        {
          "internalType": "uint256",
          "name": "",
          "type": "uint256"
        }
      ],
      "stateMutability": "view",
      "type": "function"
    },
    {
      "inputs": [],
      "name": "getTotalProjects",
      "outputs": [
        {
          "internalType": "uint256",
          "name": "",
          "type": "uint256"
        }
      ],
      "stateMutability": "view",
      "type": "function"
    },
    {
      "inputs": [
        {
          "internalType": "address",
          "name": "owner",
          "type": "address"
        },
        {
          "internalType": "address",
          "name": "operator",
          "type": "address"
        }
      ],
      "name": "isApprovedForAll",
      "outputs": [
        {
          "internalType": "bool",
          "name": "",
          "type": "bool"
        }
      ],
      "stateMutability": "view",
      "type": "function"
    },
    {
      "inputs": [
        {
          "internalType": "string",
          "name": "projectName",
          "type": "string"
        },
        {
          "internalType": "string",
          "name": "projectDescription",
          "type": "string"
        },
        {
          "internalType": "string",
          "name": "ipfsImageLink",
          "type": "string"
        }
      ],
      "name": "mintNFT",
      "outputs": [],
      "stateMutability": "nonpayable",
      "type": "function"
    },
    {
      "inputs": [],
      "name": "name",
      "outputs": [
        {
          "internalType": "string",
          "name": "",
          "type": "string"
        }
      ],
      "stateMutability": "view",
      "type": "function"
    },
    {
      "inputs": [
        {
          "internalType": "uint256",
          "name": "tokenId",
          "type": "uint256"
        }
      ],
      "name": "ownerOf",
      "outputs": [
        {
          "internalType": "address",
          "name": "",
          "type": "address"
        }
      ],
      "stateMutability": "view",
      "type": "function"
    },
    {
      "inputs": [
        {
          "internalType": "uint256",
          "name": "",
          "type": "uint256"
        }
      ],
      "name": "projects",
      "outputs": [
        {
          "internalType": "string",
          "name": "name",
          "type": "string"
        },
        {
          "internalType": "string",
          "name": "description",
          "type": "string"
        },
        {
          "internalType": "string",
          "name": "imageLink",
          "type": "string"
        }
      ],
      "stateMutability": "view",
      "type": "function"
    },
    {
      "inputs": [
        {
          "internalType": "address",
          "name": "from",
          "type": "address"
        },
        {
          "internalType": "address",
          "name": "to",
          "type": "address"
        },
        {
          "internalType": "uint256",
          "name": "tokenId",
          "type": "uint256"
        }
      ],
      "name": "safeTransferFrom",
      "outputs": [],
      "stateMutability": "nonpayable",
      "type": "function"
    },
    {
      "inputs": [
        {
          "internalType": "address",
          "name": "from",
          "type": "address"
        },
        {
          "internalType": "address",
          "name": "to",
          "type": "address"
        },
        {
          "internalType": "uint256",
          "name": "tokenId",
          "type": "uint256"
        },
        {
          "internalType": "bytes",
          "name": "data",
          "type": "bytes"
        }
      ],
      "name": "safeTransferFrom",
      "outputs": [],
      "stateMutability": "nonpayable",
      "type": "function"
    },
    {
      "inputs": [
        {
          "internalType": "address",
          "name": "operator",
          "type": "address"
        },
        {
          "internalType": "bool",
          "name": "approved",
          "type": "bool"
        }
      ],
      "name": "setApprovalForAll",
      "outputs": [],
      "stateMutability": "nonpayable",
      "type": "function"
    },
    {
      "inputs": [
        {
          "internalType": "bytes4",
          "name": "interfaceId",
          "type": "bytes4"
        }
      ],
      "name": "supportsInterface",
      "outputs": [
        {
          "internalType": "bool",
          "name": "",
          "type": "bool"
        }
      ],
      "stateMutability": "view",
      "type": "function"
    },
    {
      "inputs": [],
      "name": "symbol",
      "outputs": [
        {
          "internalType": "string",
          "name": "",
          "type": "string"
        }
      ],
      "stateMutability": "view",
      "type": "function"
    },
    {
      "inputs": [
        {
          "internalType": "uint256",
          "name": "tokenId",
          "type": "uint256"
        }
      ],
      "name": "tokenURI",
      "outputs": [
        {
          "internalType": "string",
          "name": "",
          "type": "string"
        }
      ],
      "stateMutability": "view",
      "type": "function"
    },
    {
      "inputs": [
        {
          "internalType": "address",
          "name": "from",
          "type": "address"
        },
        {
          "internalType": "address",
          "name": "to",
          "type": "address"
        },
        {
          "internalType": "uint256",
          "name": "tokenId",
          "type": "uint256"
        }
      ],
      "name": "transferFrom",
      "outputs": [],
      "stateMutability": "nonpayable",
      "type": "function"
    }
  ],
  "bytecode": "0x60806040523480156200001157600080fd5b506040518060400160405280600a81526020017f50726f6a6563744e4654000000000000000000000000000000000000000000008152506040518060400160405280600481526020017f504e46540000000000000000000000000000000000000000000000000000000081525081600090816200008f91906200032c565b508060019081620000a191906200032c565b505050600060068190555062000413565b600081519050919050565b7f4e487b7100000000000000000000000000000000000000000000000000000000600052604160045260246000fd5b7f4e487b7100000000000000000000000000000000000000000000000000000000600052602260045260246000fd5b600060028204905060018216806200013457607f821691505b6020821081036200014a5762000149620000ec565b5b50919050565b60008190508160005260206000209050919050565b60006020601f8301049050919050565b600082821b905092915050565b600060088302620001b47fffffffffffffffffffffffffffffffffffffffffffffffffffffffffffffffff8262000175565b620001c0868362000175565b95508019841693508086168417925050509392505050565b6000819050919050565b6000819050919050565b60006200020d620002076200020184620001d8565b620001e2565b620001d8565b9050919050565b6000819050919050565b6200022983620001ec565b62000241620002388262000214565b84845462000182565b825550505050565b600090565b6200025862000249565b620002658184846200021e565b505050565b5b818110156200028d57620002816000826200024e565b6001810190506200026b565b5050565b601f821115620002dc57620002a68162000150565b620002b18462000165565b81016020851015620002c1578190505b620002d9620002d08562000165565b8301826200026a565b50505b505050565b600082821c905092915050565b60006200030160001984600802620002e1565b1980831691505092915050565b60006200031c8383620002ee565b9150826002028217905092915050565b6200033782620000b2565b67ffffffffffffffff811115620003535762000352620000bd565b5b6200035f82546200011b565b6200036c82828562000291565b600060209050601f831160018114620003a457600084156200038f578287015190505b6200039b85826200030e565b8655506200040b565b601f198416620003b48662000150565b60005b82811015620003de57848901518255600182019150602085019450602081019050620003b7565b86831015620003fe5784890151620003fa601f891682620002ee565b8355505b6001600288020188555050505b505050505050565b612b5780620004236000396000f3fe608060405234801561001057600080fd5b50600436106101165760003560e01c80636352211e116100a257806395d89b411161007157806395d89b4114610307578063a22cb46514610325578063b88d4fde14610341578063c87b56dd1461035d578063e985e9c51461038d57610116565b80636352211e1461026b5780636e02007d1461029b57806370a08231146102b9578063812739a2146102e957610116565b80630c3b7b72116100e95780630c3b7b72146101b5578063107046bd146101d157806323b872dd146102035780632b7e328a1461021f57806342842e0e1461024f57610116565b806301ffc9a71461011b57806306fdde031461014b578063081812fc14610169578063095ea7b314610199575b600080fd5b61013560048036038101906101309190611cd6565b6103bd565b6040516101429190611d1e565b60405180910390f35b61015361049f565b6040516101609190611dc9565b60405180910390f35b610183600480360381019061017e9190611e21565b610531565b6040516101909190611e8f565b60405180910390f35b6101b360048036038101906101ae9190611ed6565b61054d565b005b6101cf60048036038101906101ca919061204b565b610563565b005b6101eb60048036038101906101e69190611e21565b61068f565b6040516101fa939291906120f2565b60405180910390f35b61021d6004803603810190610218919061213e565b610851565b005b61023960048036038101906102349190611e21565b610953565b6040516102469190612239565b60405180910390f35b6102696004803603810190610264919061213e565b610b8c565b005b61028560048036038101906102809190611e21565b610bac565b6040516102929190611e8f565b60405180910390f35b6102a3610bbe565b6040516102b0919061226a565b60405180910390f35b6102d360048036038101906102ce9190612285565b610bc8565b6040516102e0919061226a565b60405180910390f35b6102f1610c82565b6040516102fe919061226a565b60405180910390f35b61030f610c8f565b60405161031c9190611dc9565b60405180910390f35b61033f600480360381019061033a91906122de565b610d21565b005b61035b600480360381019061035691906123bf565b610d37565b005b61037760048036038101906103729190611e21565b610d54565b6040516103849190611dc9565b60405180910390f35b6103a760048036038101906103a29190612442565b610e51565b6040516103b49190611d1e565b60405180910390f35b60007f80ac58cd000000000000000000000000000000000000000000000000000000007bffffffffffffffffffffffffffffffffffffffffffffffffffffffff1916827bffffffffffffffffffffffffffffffffffffffffffffffffffffffff1916148061048857507f5b5e139f000000000000000000000000000000000000000000000000000000007bffffffffffffffffffffffffffffffffffffffffffffffffffffffff1916827bffffffffffffffffffffffffffffffffffffffffffffffffffffffff1916145b80610498575061049782610ee5565b5b9050919050565b6060600080546104ae906124b1565b80601f01602080910402602001604051908101604052809291908181526020018280546104da906124b1565b80156105275780601f106104fc57610100808354040283529160200191610527565b820191906000526020600020905b81548152906001019060200180831161050a57829003601f168201915b5050505050905090565b600061053c82610f4f565b5061054682610fd7565b9050919050565b61055f828261055a611014565b61101c565b5050565b60006006549050610574338261102e565b6040518060600160405280858152602001848152602001838152506007600083815260200190815260200160002060008201518160000190816105b7919061268e565b5060208201518160010190816105cd919061268e565b5060408201518160020190816105e3919061268e565b50905050600860405180606001604052808681526020018581526020018481525090806001815401808255809150506001900390600052602060002090600302016000909190919091506000820151816000019081610642919061268e565b506020820151816001019081610658919061268e565b50604082015181600201908161066e919061268e565b505050600660008154809291906106849061278f565b919050555050505050565b60076020528060005260406000206000915090508060000180546106b2906124b1565b80601f01602080910402602001604051908101604052809291908181526020018280546106de906124b1565b801561072b5780601f106107005761010080835404028352916020019161072b565b820191906000526020600020905b81548152906001019060200180831161070e57829003601f168201915b505050505090806001018054610740906124b1565b80601f016020809104026020016040519081016040528092919081815260200182805461076c906124b1565b80156107b95780601f1061078e576101008083540402835291602001916107b9565b820191906000526020600020905b81548152906001019060200180831161079c57829003601f168201915b5050505050908060020180546107ce906124b1565b80601f01602080910402602001604051908101604052809291908181526020018280546107fa906124b1565b80156108475780601f1061081c57610100808354040283529160200191610847565b820191906000526020600020905b81548152906001019060200180831161082a57829003601f168201915b5050505050905083565b600073ffffffffffffffffffffffffffffffffffffffff168273ffffffffffffffffffffffffffffffffffffffff16036108c35760006040517f64a0ae920000000000000000000000000000000000000000000000000000000081526004016108ba9190611e8f565b60405180910390fd5b60006108d783836108d2611014565b61104c565b90508373ffffffffffffffffffffffffffffffffffffffff168173ffffffffffffffffffffffffffffffffffffffff161461094d578382826040517f64283d7b000000000000000000000000000000000000000000000000000000008152600401610944939291906127d7565b60405180910390fd5b50505050565b61095b611c49565b60088054905082106109a2576040517f08c379a00000000000000000000000000000000000000000000000000000000081526004016109999061285a565b60405180910390fd5b600882815481106109b6576109b561287a565b5b90600052602060002090600302016040518060600160405290816000820180546109df906124b1565b80601f0160208091040260200160405190810160405280929190818152602001828054610a0b906124b1565b8015610a585780601f10610a2d57610100808354040283529160200191610a58565b820191906000526020600020905b815481529060010190602001808311610a3b57829003601f168201915b50505050508152602001600182018054610a71906124b1565b80601f0160208091040260200160405190810160405280929190818152602001828054610a9d906124b1565b8015610aea5780601f10610abf57610100808354040283529160200191610aea565b820191906000526020600020905b815481529060010190602001808311610acd57829003601f168201915b50505050508152602001600282018054610b03906124b1565b80601f0160208091040260200160405190810160405280929190818152602001828054610b2f906124b1565b8015610b7c5780601f10610b5157610100808354040283529160200191610b7c565b820191906000526020600020905b815481529060010190602001808311610b5f57829003601f168201915b5050505050815250509050919050565b610ba783838360405180602001604052806000815250610d37565b505050565b6000610bb782610f4f565b9050919050565b6000600654905090565b60008073ffffffffffffffffffffffffffffffffffffffff168273ffffffffffffffffffffffffffffffffffffffff1603610c3b5760006040517f89c62b64000000000000000000000000000000000000000000000000000000008152600401610c329190611e8f565b60405180910390fd5b600360008373ffffffffffffffffffffffffffffffffffffffff1673ffffffffffffffffffffffffffffffffffffffff168152602001908152602001600020549050919050565b6000600880549050905090565b606060018054610c9e906124b1565b80601f0160208091040260200160405190810160405280929190818152602001828054610cca906124b1565b8015610d175780601f10610cec57610100808354040283529160200191610d17565b820191906000526020600020905b815481529060010190602001808311610cfa57829003601f168201915b5050505050905090565b610d33610d2c611014565b8383611266565b5050565b610d42848484610851565b610d4e848484846113d5565b50505050565b60606000610d618361158c565b90506000604051806060016040528060228152602001612b006022913990506000600760008681526020019081526020016000206002018054610da3906124b1565b80601f0160208091040260200160405190810160405280929190818152602001828054610dcf906124b1565b8015610e1c5780601f10610df157610100808354040283529160200191610e1c565b820191906000526020600020905b815481529060010190602001808311610dff57829003601f168201915b50505050509050818184604051602001610e389392919061297d565b6040516020818303038152906040529350505050919050565b6000600560008473ffffffffffffffffffffffffffffffffffffffff1673ffffffffffffffffffffffffffffffffffffffff16815260200190815260200160002060008373ffffffffffffffffffffffffffffffffffffffff1673ffffffffffffffffffffffffffffffffffffffff16815260200190815260200160002060009054906101000a900460ff16905092915050565b60007f01ffc9a7000000000000000000000000000000000000000000000000000000007bffffffffffffffffffffffffffffffffffffffffffffffffffffffff1916827bffffffffffffffffffffffffffffffffffffffffffffffffffffffff1916149050919050565b600080610f5b8361165a565b9050600073ffffffffffffffffffffffffffffffffffffffff168173ffffffffffffffffffffffffffffffffffffffff1603610fce57826040517f7e273289000000000000000000000000000000000000000000000000000000008152600401610fc5919061226a565b60405180910390fd5b80915050919050565b60006004600083815260200190815260200160002060009054906101000a900473ffffffffffffffffffffffffffffffffffffffff169050919050565b600033905090565b6110298383836001611697565b505050565b61104882826040518060200160405280600081525061185c565b5050565b6000806110588461165a565b9050600073ffffffffffffffffffffffffffffffffffffffff168373ffffffffffffffffffffffffffffffffffffffff161461109a57611099818486611878565b5b600073ffffffffffffffffffffffffffffffffffffffff168173ffffffffffffffffffffffffffffffffffffffff161461112b576110dc600085600080611697565b6001600360008373ffffffffffffffffffffffffffffffffffffffff1673ffffffffffffffffffffffffffffffffffffffff168152602001908152602001600020600082825403925050819055505b600073ffffffffffffffffffffffffffffffffffffffff168573ffffffffffffffffffffffffffffffffffffffff16146111ae576001600360008773ffffffffffffffffffffffffffffffffffffffff1673ffffffffffffffffffffffffffffffffffffffff168152602001908152602001600020600082825401925050819055505b846002600086815260200190815260200160002060006101000a81548173ffffffffffffffffffffffffffffffffffffffff021916908373ffffffffffffffffffffffffffffffffffffffff160217905550838573ffffffffffffffffffffffffffffffffffffffff168273ffffffffffffffffffffffffffffffffffffffff167fddf252ad1be2c89b69c2b068fc378daa952ba7f163c4a11628f55a4df523b3ef60405160405180910390a4809150509392505050565b600073ffffffffffffffffffffffffffffffffffffffff168273ffffffffffffffffffffffffffffffffffffffff16036112d757816040517f5b08ba180000000000000000000000000000000000000000000000000000000081526004016112ce9190611e8f565b60405180910390fd5b80600560008573ffffffffffffffffffffffffffffffffffffffff1673ffffffffffffffffffffffffffffffffffffffff16815260200190815260200160002060008473ffffffffffffffffffffffffffffffffffffffff1673ffffffffffffffffffffffffffffffffffffffff16815260200190815260200160002060006101000a81548160ff0219169083151502179055508173ffffffffffffffffffffffffffffffffffffffff168373ffffffffffffffffffffffffffffffffffffffff167f17307eab39ab6107e8899845ad3d59bd9653f200f220920489ca2b5937696c31836040516113c89190611d1e565b60405180910390a3505050565b60008373ffffffffffffffffffffffffffffffffffffffff163b1115611586578273ffffffffffffffffffffffffffffffffffffffff1663150b7a02611419611014565b8685856040518563ffffffff1660e01b815260040161143b9493929190612a19565b6020604051808303816000875af192505050801561147757506040513d601f19601f820116820180604052508101906114749190612a7a565b60015b6114fb573d80600081146114a7576040519150601f19603f3d011682016040523d82523d6000602084013e6114ac565b606091505b5060008151036114f357836040517f64a0ae920000000000000000000000000000000000000000000000000000000081526004016114ea9190611e8f565b60405180910390fd5b805181602001fd5b63150b7a0260e01b7bffffffffffffffffffffffffffffffffffffffffffffffffffffffff1916817bffffffffffffffffffffffffffffffffffffffffffffffffffffffff19161461158457836040517f64a0ae9200000000000000000000000000000000000000000000000000000000815260040161157b9190611e8f565b60405180910390fd5b505b50505050565b60606000600161159b8461193c565b01905060008167ffffffffffffffff8111156115ba576115b9611f20565b5b6040519080825280601f01601f1916602001820160405280156115ec5781602001600182028036833780820191505090505b509050600082602001820190505b60011561164f578080600190039150507f3031323334353637383961626364656600000000000000000000000000000000600a86061a8153600a858161164357611642612aa7565b5b049450600085036115fa575b819350505050919050565b60006002600083815260200190815260200160002060009054906101000a900473ffffffffffffffffffffffffffffffffffffffff169050919050565b80806116d05750600073ffffffffffffffffffffffffffffffffffffffff168273ffffffffffffffffffffffffffffffffffffffff1614155b156118045760006116e084610f4f565b9050600073ffffffffffffffffffffffffffffffffffffffff168373ffffffffffffffffffffffffffffffffffffffff161415801561174b57508273ffffffffffffffffffffffffffffffffffffffff168173ffffffffffffffffffffffffffffffffffffffff1614155b801561175e575061175c8184610e51565b155b156117a057826040517fa9fbf51f0000000000000000000000000000000000000000000000000000000081526004016117979190611e8f565b60405180910390fd5b811561180257838573ffffffffffffffffffffffffffffffffffffffff168273ffffffffffffffffffffffffffffffffffffffff167f8c5be1e5ebec7d5bd14f71427d1e84f3dd0314c0f7b2291e5b200ac8c7c3b92560405160405180910390a45b505b836004600085815260200190815260200160002060006101000a81548173ffffffffffffffffffffffffffffffffffffffff021916908373ffffffffffffffffffffffffffffffffffffffff16021790555050505050565b6118668383611a8f565b61187360008484846113d5565b505050565b611883838383611b88565b61193757600073ffffffffffffffffffffffffffffffffffffffff168373ffffffffffffffffffffffffffffffffffffffff16036118f857806040517f7e2732890000000000000000000000000000000000000000000000000000000081526004016118ef919061226a565b60405180910390fd5b81816040517f177e802f00000000000000000000000000000000000000000000000000000000815260040161192e929190612ad6565b60405180910390fd5b505050565b600080600090507a184f03e93ff9f4daa797ed6e38ed64bf6a1f010000000000000000831061199a577a184f03e93ff9f4daa797ed6e38ed64bf6a1f01000000000000000083816119905761198f612aa7565b5b0492506040810190505b6d04ee2d6d415b85acef810000000083106119d7576d04ee2d6d415b85acef810000000083816119cd576119cc612aa7565b5b0492506020810190505b662386f26fc100008310611a0657662386f26fc1000083816119fc576119fb612aa7565b5b0492506010810190505b6305f5e1008310611a2f576305f5e1008381611a2557611a24612aa7565b5b0492506008810190505b6127108310611a54576127108381611a4a57611a49612aa7565b5b0492506004810190505b60648310611a775760648381611a6d57611a6c612aa7565b5b0492506002810190505b600a8310611a86576001810190505b80915050919050565b600073ffffffffffffffffffffffffffffffffffffffff168273ffffffffffffffffffffffffffffffffffffffff1603611b015760006040517f64a0ae92000000000000000000000000000000000000000000000000000000008152600401611af89190611e8f565b60405180910390fd5b6000611b0f8383600061104c565b9050600073ffffffffffffffffffffffffffffffffffffffff168173ffffffffffffffffffffffffffffffffffffffff1614611b835760006040517f73c6ac6e000000000000000000000000000000000000000000000000000000008152600401611b7a9190611e8f565b60405180910390fd5b505050565b60008073ffffffffffffffffffffffffffffffffffffffff168373ffffffffffffffffffffffffffffffffffffffff1614158015611c4057508273ffffffffffffffffffffffffffffffffffffffff168473ffffffffffffffffffffffffffffffffffffffff161480611c015750611c008484610e51565b5b80611c3f57508273ffffffffffffffffffffffffffffffffffffffff16611c2783610fd7565b73ffffffffffffffffffffffffffffffffffffffff16145b5b90509392505050565b60405180606001604052806060815260200160608152602001606081525090565b6000604051905090565b600080fd5b600080fd5b60007fffffffff0000000000000000000000000000000000000000000000000000000082169050919050565b611cb381611c7e565b8114611cbe57600080fd5b50565b600081359050611cd081611caa565b92915050565b600060208284031215611cec57611ceb611c74565b5b6000611cfa84828501611cc1565b91505092915050565b60008115159050919050565b611d1881611d03565b82525050565b6000602082019050611d336000830184611d0f565b92915050565b600081519050919050565b600082825260208201905092915050565b60005b83811015611d73578082015181840152602081019050611d58565b60008484015250505050565b6000601f19601f8301169050919050565b6000611d9b82611d39565b611da58185611d44565b9350611db5818560208601611d55565b611dbe81611d7f565b840191505092915050565b60006020820190508181036000830152611de38184611d90565b905092915050565b6000819050919050565b611dfe81611deb565b8114611e0957600080fd5b50565b600081359050611e1b81611df5565b92915050565b600060208284031215611e3757611e36611c74565b5b6000611e4584828501611e0c565b91505092915050565b600073ffffffffffffffffffffffffffffffffffffffff82169050919050565b6000611e7982611e4e565b9050919050565b611e8981611e6e565b82525050565b6000602082019050611ea46000830184611e80565b92915050565b611eb381611e6e565b8114611ebe57600080fd5b50565b600081359050611ed081611eaa565b92915050565b60008060408385031215611eed57611eec611c74565b5b6000611efb85828601611ec1565b9250506020611f0c85828601611e0c565b9150509250929050565b600080fd5b600080fd5b7f4e487b7100000000000000000000000000000000000000000000000000000000600052604160045260246000fd5b611f5882611d7f565b810181811067ffffffffffffffff82111715611f7757611f76611f20565b5b80604052505050565b6000611f8a611c6a565b9050611f968282611f4f565b919050565b600067ffffffffffffffff821115611fb657611fb5611f20565b5b611fbf82611d7f565b9050602081019050919050565b82818337600083830152505050565b6000611fee611fe984611f9b565b611f80565b90508281526020810184848401111561200a57612009611f1b565b5b612015848285611fcc565b509392505050565b600082601f83011261203257612031611f16565b5b8135612042848260208601611fdb565b91505092915050565b60008060006060848603121561206457612063611c74565b5b600084013567ffffffffffffffff81111561208257612081611c79565b5b61208e8682870161201d565b935050602084013567ffffffffffffffff8111156120af576120ae611c79565b5b6120bb8682870161201d565b925050604084013567ffffffffffffffff8111156120dc576120db611c79565b5b6120e88682870161201d565b9150509250925092565b6000606082019050818103600083015261210c8186611d90565b905081810360208301526121208185611d90565b905081810360408301526121348184611d90565b9050949350505050565b60008060006060848603121561215757612156611c74565b5b600061216586828701611ec1565b935050602061217686828701611ec1565b925050604061218786828701611e0c565b9150509250925092565b600082825260208201905092915050565b60006121ad82611d39565b6121b78185612191565b93506121c7818560208601611d55565b6121d081611d7f565b840191505092915050565b600060608301600083015184820360008601526121f882826121a2565b9150506020830151848203602086015261221282826121a2565b9150506040830151848203604086015261222c82826121a2565b9150508091505092915050565b6000602082019050818103600083015261225381846121db565b905092915050565b61226481611deb565b82525050565b600060208201905061227f600083018461225b565b92915050565b60006020828403121561229b5761229a611c74565b5b60006122a984828501611ec1565b91505092915050565b6122bb81611d03565b81146122c657600080fd5b50565b6000813590506122d8816122b2565b92915050565b600080604083850312156122f5576122f4611c74565b5b600061230385828601611ec1565b9250506020612314858286016122c9565b9150509250929050565b600067ffffffffffffffff82111561233957612338611f20565b5b61234282611d7f565b9050602081019050919050565b600061236261235d8461231e565b611f80565b90508281526020810184848401111561237e5761237d611f1b565b5b612389848285611fcc565b509392505050565b600082601f8301126123a6576123a5611f16565b5b81356123b684826020860161234f565b91505092915050565b600080600080608085870312156123d9576123d8611c74565b5b60006123e787828801611ec1565b94505060206123f887828801611ec1565b935050604061240987828801611e0c565b925050606085013567ffffffffffffffff81111561242a57612429611c79565b5b61243687828801612391565b91505092959194509250565b6000806040838503121561245957612458611c74565b5b600061246785828601611ec1565b925050602061247885828601611ec1565b9150509250929050565b7f4e487b7100000000000000000000000000000000000000000000000000000000600052602260045260246000fd5b600060028204905060018216806124c957607f821691505b6020821081036124dc576124db612482565b5b50919050565b60008190508160005260206000209050919050565b60006020601f8301049050919050565b600082821b905092915050565b6000600883026125447fffffffffffffffffffffffffffffffffffffffffffffffffffffffffffffffff82612507565b61254e8683612507565b95508019841693508086168417925050509392505050565b6000819050919050565b600061258b61258661258184611deb565b612566565b611deb565b9050919050565b6000819050919050565b6125a583612570565b6125b96125b182612592565b848454612514565b825550505050565b600090565b6125ce6125c1565b6125d981848461259c565b505050565b5b818110156125fd576125f26000826125c6565b6001810190506125df565b5050565b601f82111561264257612613816124e2565b61261c846124f7565b8101602085101561262b578190505b61263f612637856124f7565b8301826125de565b50505b505050565b600082821c905092915050565b600061266560001984600802612647565b1980831691505092915050565b600061267e8383612654565b9150826002028217905092915050565b61269782611d39565b67ffffffffffffffff8111156126b0576126af611f20565b5b6126ba82546124b1565b6126c5828285612601565b600060209050601f8311600181146126f857600084156126e6578287015190505b6126f08582612672565b865550612758565b601f198416612706866124e2565b60005b8281101561272e57848901518255600182019150602085019450602081019050612709565b8683101561274b5784890151612747601f891682612654565b8355505b6001600288020188555050505b505050505050565b7f4e487b7100000000000000000000000000000000000000000000000000000000600052601160045260246000fd5b600061279a82611deb565b91507fffffffffffffffffffffffffffffffffffffffffffffffffffffffffffffffff82036127cc576127cb612760565b5b600182019050919050565b60006060820190506127ec6000830186611e80565b6127f9602083018561225b565b6128066040830184611e80565b949350505050565b7f496e646578206f7574206f6620626f756e647300000000000000000000000000600082015250565b6000612844601383611d44565b915061284f8261280e565b602082019050919050565b6000602082019050818103600083015261287381612837565b9050919050565b7f4e487b7100000000000000000000000000000000000000000000000000000000600052603260045260246000fd5b600081905092915050565b60006128bf82611d39565b6128c981856128a9565b93506128d9818560208601611d55565b80840191505092915050565b7f2f00000000000000000000000000000000000000000000000000000000000000600082015250565b600061291b6001836128a9565b9150612926826128e5565b600182019050919050565b7f2e6a736f6e000000000000000000000000000000000000000000000000000000600082015250565b60006129676005836128a9565b915061297282612931565b600582019050919050565b600061298982866128b4565b915061299582856128b4565b91506129a08261290e565b91506129ac82846128b4565b91506129b78261295a565b9150819050949350505050565b600081519050919050565b600082825260208201905092915050565b60006129eb826129c4565b6129f581856129cf565b9350612a05818560208601611d55565b612a0e81611d7f565b840191505092915050565b6000608082019050612a2e6000830187611e80565b612a3b6020830186611e80565b612a48604083018561225b565b8181036060830152612a5a81846129e0565b905095945050505050565b600081519050612a7481611caa565b92915050565b600060208284031215612a9057612a8f611c74565b5b6000612a9e84828501612a65565b91505092915050565b7f4e487b7100000000000000000000000000000000000000000000000000000000600052601260045260246000fd5b6000604082019050612aeb6000830185611e80565b612af8602083018461225b565b939250505056fe68747470733a2f2f676174657761792e70696e6174612e636c6f75642f697066732fa2646970667358221220626d30b332fa73dd6c57cc31ece581ef99eb655a22a0c830e3b2b6a2d1b3026364736f6c63430008140033",
  "linkReferences": {},
  "deployedLinkReferences": {}
}