{
  "_format": "hh-sol-artifact-1",
  "contractName": "Ballot",
  "sourceName": "contracts/Ballot.sol",
  "abi": [
    {
      "inputs": [
        {
          "internalType": "uint256",
          "name": "issueIndex",
          "type": "uint256"
        },
        {
          "internalType": "bool",
          "name": "isYesVote",
          "type": "bool"
        }
      ],
      "name": "castVote",
      "outputs": [],
      "stateMutability": "nonpayable",
      "type": "function"
    },
    {
      "inputs": [
        {
          "internalType": "bytes32",
          "name": "_name",
          "type": "bytes32"
        },
        {
          "internalType": "uint256",
          "name": "_votingDurationHours",
          "type": "uint256"
        }
      ],
      "name": "createIssue",
      "outputs": [
        {
          "internalType": "uint256",
          "name": "",
          "type": "uint256"
        }
      ],
      "stateMutability": "nonpayable",
      "type": "function"
    },
    {
      "inputs": [
        {
          "internalType": "uint256",
          "name": "issueIndex",
          "type": "uint256"
        }
      ],
      "name": "determineWinner",
      "outputs": [
        {
          "internalType": "string",
          "name": "",
          "type": "string"
        }
      ],
      "stateMutability": "nonpayable",
      "type": "function"
    },
    {
      "inputs": [],
      "name": "getAllIssues",
      "outputs": [
        {
          "internalType": "bytes32[]",
          "name": "",
          "type": "bytes32[]"
        }
      ],
      "stateMutability": "view",
      "type": "function"
    },
    {
      "inputs": [
        {
          "internalType": "uint256",
          "name": "issueIndex",
          "type": "uint256"
        }
      ],
      "name": "getIssueVotes",
      "outputs": [
        {
          "internalType": "uint256",
          "name": "yesVotes",
          "type": "uint256"
        },
        {
          "internalType": "uint256",
          "name": "noVotes",
          "type": "uint256"
        }
      ],
      "stateMutability": "view",
      "type": "function"
    },
    {
      "inputs": [
        {
          "internalType": "uint256",
          "name": "issueIndex",
          "type": "uint256"
        }
      ],
      "name": "getVotersForIssue",
      "outputs": [
        {
          "internalType": "address[]",
          "name": "",
          "type": "address[]"
        }
      ],
      "stateMutability": "view",
      "type": "function"
    },
    {
      "inputs": [
        {
          "internalType": "uint256",
          "name": "issueIndex",
          "type": "uint256"
        },
        {
          "internalType": "address",
          "name": "voter",
          "type": "address"
        }
      ],
      "name": "hasAddressVoted",
      "outputs": [
        {
          "internalType": "bool",
          "name": "",
          "type": "bool"
        }
      ],
      "stateMutability": "view",
      "type": "function"
    }
  ],
  "bytecode": "0x608060405234801561001057600080fd5b5061123c806100206000396000f3fe608060405234801561001057600080fd5b506004361061007d5760003560e01c8063736faeec1161005b578063736faeec146100ff578063efe433381461012f578063f7e081631461015f578063f9436c8e1461017d5761007d565b806315373e3d14610082578063167f34381461009e5780631c1ed4a1146100ce575b600080fd5b61009c60048036038101906100979190610af7565b6101ad565b005b6100b860048036038101906100b39190610a4a565b610417565b6040516100c59190610de2565b60405180910390f35b6100e860048036038101906100e39190610a8a565b6104c3565b6040516100f6929190610dfd565b60405180910390f35b61011960048036038101906101149190610ab7565b610547565b6040516101269190610d45565b60405180910390f35b61014960048036038101906101449190610a8a565b61060d565b6040516101569190610d60565b60405180910390f35b610167610833565b6040516101749190610d23565b60405180910390f35b61019760048036038101906101929190610a8a565b6108f6565b6040516101a49190610d01565b60405180910390f35b81600081815481106101c2576101c1611095565b5b906000526020600020906002020160010154421115610216576040517f08c379a000000000000000000000000000000000000000000000000000000000815260040161020d90610da2565b60405180910390fd5b600080549050831061025d576040517f08c379a000000000000000000000000000000000000000000000000000000000815260040161025490610d82565b60405180910390fd5b60006001848154811061027357610272611095565b5b906000526020600020906004020190508060020160003373ffffffffffffffffffffffffffffffffffffffff1673ffffffffffffffffffffffffffffffffffffffff16815260200190815260200160002060009054906101000a900460ff1615610312576040517f08c379a000000000000000000000000000000000000000000000000000000000815260040161030990610dc2565b60405180910390fd5b82156103375780600001600081548092919061032d9061101d565b9190505550610352565b80600101600081548092919061034c9061101d565b91905055505b60018160020160003373ffffffffffffffffffffffffffffffffffffffff1673ffffffffffffffffffffffffffffffffffffffff16815260200190815260200160002060006101000a81548160ff02191690831515021790555080600301339080600181540180825580915050600190039060005260206000200160009091909190916101000a81548173ffffffffffffffffffffffffffffffffffffffff021916908373ffffffffffffffffffffffffffffffffffffffff16021790555050505050565b6000806040518060400160405280858152602001610e10856104399190610f0a565b426104449190610eb4565b8152509050600081908060018154018082558091505060019003906000526020600020906002020160009091909190915060008201518160000155602082015181600101555050600180816001815401808255809150500390600052602060002090505060016000805490506104ba9190610f64565b91505092915050565b600080600080549050831061050d576040517f08c379a000000000000000000000000000000000000000000000000000000000815260040161050490610d82565b60405180910390fd5b60006001848154811061052357610522611095565b5b90600052602060002090600402019050806000015481600101549250925050915091565b60008080549050831061058f576040517f08c379a000000000000000000000000000000000000000000000000000000000815260040161058690610d82565b60405180910390fd5b6000600184815481106105a5576105a4611095565b5b906000526020600020906004020190508060020160008473ffffffffffffffffffffffffffffffffffffffff1673ffffffffffffffffffffffffffffffffffffffff16815260200190815260200160002060009054906101000a900460ff1691505092915050565b6060816000818154811061062457610623611095565b5b906000526020600020906002020160010154421115610678576040517f08c379a000000000000000000000000000000000000000000000000000000000815260040161066f90610da2565b60405180910390fd5b60008054905083106106bf576040517f08c379a00000000000000000000000000000000000000000000000000000000081526004016106b690610d82565b60405180910390fd5b60008084815481106106d4576106d3611095565b5b906000526020600020906002020190506000600185815481106106fa576106f9611095565b5b9060005260206000209060040201905081600101544211610754576040518060400160405280601781526020017f566f74696e67206973207374696c6c206f6e676f696e670000000000000000008152509350505061082d565b8060010154816000015411156107a3576040518060400160405280600881526020017f5965732077696e730000000000000000000000000000000000000000000000008152509350505061082d565b8060010154816000015410156107f2576040518060400160405280600781526020017f4e6f2077696e73000000000000000000000000000000000000000000000000008152509350505061082d565b6040518060400160405280600a81526020017f4974277320612074696500000000000000000000000000000000000000000000815250935050505b50919050565b60606000808054905067ffffffffffffffff811115610855576108546110c4565b5b6040519080825280602002602001820160405280156108835781602001602082028036833780820191505090505b50905060005b6000805490508110156108ee57600081815481106108aa576108a9611095565b5b9060005260206000209060020201600001548282815181106108cf576108ce611095565b5b60200260200101818152505080806108e69061101d565b915050610889565b508091505090565b6060600080549050821061093f576040517f08c379a000000000000000000000000000000000000000000000000000000000815260040161093690610d82565b60405180910390fd5b60006001838154811061095557610954611095565b5b90600052602060002090600402019050806003018054806020026020016040519081016040528092919081815260200182805480156109e957602002820191906000526020600020905b8160009054906101000a900473ffffffffffffffffffffffffffffffffffffffff1673ffffffffffffffffffffffffffffffffffffffff168152602001906001019080831161099f575b5050505050915050919050565b600081359050610a05816111aa565b92915050565b600081359050610a1a816111c1565b92915050565b600081359050610a2f816111d8565b92915050565b600081359050610a44816111ef565b92915050565b60008060408385031215610a6157610a606110f3565b5b6000610a6f85828601610a20565b9250506020610a8085828601610a35565b9150509250929050565b600060208284031215610aa057610a9f6110f3565b5b6000610aae84828501610a35565b91505092915050565b60008060408385031215610ace57610acd6110f3565b5b6000610adc85828601610a35565b9250506020610aed858286016109f6565b9150509250929050565b60008060408385031215610b0e57610b0d6110f3565b5b6000610b1c85828601610a35565b9250506020610b2d85828601610a0b565b9150509250929050565b6000610b438383610b67565b60208301905092915050565b6000610b5b8383610c41565b60208301905092915050565b610b7081610f98565b82525050565b6000610b8182610e46565b610b8b8185610e81565b9350610b9683610e26565b8060005b83811015610bc7578151610bae8882610b37565b9750610bb983610e67565b925050600181019050610b9a565b5085935050505092915050565b6000610bdf82610e51565b610be98185610e92565b9350610bf483610e36565b8060005b83811015610c25578151610c0c8882610b4f565b9750610c1783610e74565b925050600181019050610bf8565b5085935050505092915050565b610c3b81610faa565b82525050565b610c4a81610fb6565b82525050565b6000610c5b82610e5c565b610c658185610ea3565b9350610c75818560208601610fea565b610c7e816110f8565b840191505092915050565b6000610c96601383610ea3565b9150610ca182611109565b602082019050919050565b6000610cb9601f83610ea3565b9150610cc482611132565b602082019050919050565b6000610cdc602583610ea3565b9150610ce78261115b565b604082019050919050565b610cfb81610fe0565b82525050565b60006020820190508181036000830152610d1b8184610b76565b905092915050565b60006020820190508181036000830152610d3d8184610bd4565b905092915050565b6000602082019050610d5a6000830184610c32565b92915050565b60006020820190508181036000830152610d7a8184610c50565b905092915050565b60006020820190508181036000830152610d9b81610c89565b9050919050565b60006020820190508181036000830152610dbb81610cac565b9050919050565b60006020820190508181036000830152610ddb81610ccf565b9050919050565b6000602082019050610df76000830184610cf2565b92915050565b6000604082019050610e126000830185610cf2565b610e1f6020830184610cf2565b9392505050565b6000819050602082019050919050565b6000819050602082019050919050565b600081519050919050565b600081519050919050565b600081519050919050565b6000602082019050919050565b6000602082019050919050565b600082825260208201905092915050565b600082825260208201905092915050565b600082825260208201905092915050565b6000610ebf82610fe0565b9150610eca83610fe0565b9250827fffffffffffffffffffffffffffffffffffffffffffffffffffffffffffffffff03821115610eff57610efe611066565b5b828201905092915050565b6000610f1582610fe0565b9150610f2083610fe0565b9250817fffffffffffffffffffffffffffffffffffffffffffffffffffffffffffffffff0483118215151615610f5957610f58611066565b5b828202905092915050565b6000610f6f82610fe0565b9150610f7a83610fe0565b925082821015610f8d57610f8c611066565b5b828203905092915050565b6000610fa382610fc0565b9050919050565b60008115159050919050565b6000819050919050565b600073ffffffffffffffffffffffffffffffffffffffff82169050919050565b6000819050919050565b60005b83811015611008578082015181840152602081019050610fed565b83811115611017576000848401525b50505050565b600061102882610fe0565b91507fffffffffffffffffffffffffffffffffffffffffffffffffffffffffffffffff82141561105b5761105a611066565b5b600182019050919050565b7f4e487b7100000000000000000000000000000000000000000000000000000000600052601160045260246000fd5b7f4e487b7100000000000000000000000000000000000000000000000000000000600052603260045260246000fd5b7f4e487b7100000000000000000000000000000000000000000000000000000000600052604160045260246000fd5b600080fd5b6000601f19601f8301169050919050565b7f496e76616c696420697373756520696e64657800000000000000000000000000600082015250565b7f566f74696e6720697320636c6f73656420666f72207468697320697373756500600082015250565b7f596f75206861766520616c726561647920766f74656420666f7220746869732060008201527f6973737565000000000000000000000000000000000000000000000000000000602082015250565b6111b381610f98565b81146111be57600080fd5b50565b6111ca81610faa565b81146111d557600080fd5b50565b6111e181610fb6565b81146111ec57600080fd5b50565b6111f881610fe0565b811461120357600080fd5b5056fea264697066735822122090f5fc4ee5445211f8fefb92f29d77ed049e9d43aecd803533560afe46696b7864736f6c63430008070033",
  "linkReferences": {},
  "deployedLinkReferences": {}
}